{"contracts/Battlesnark.sol":{"Battlesnark":{"abi":[{"inputs":[],"name":"getP1LastProof","outputs":[{"internalType":"string","name":"","type":"string"}],"stateMutability":"view","type":"function"},{"inputs":[],"name":"getP2LastProof","outputs":[{"internalType":"string","name":"","type":"string"}],"stateMutability":"view","type":"function"},{"inputs":[{"internalType":"uint256","name":"x","type":"uint256"},{"internalType":"uint256","name":"y","type":"uint256"}],"name":"playerOneAttack","outputs":[{"internalType":"string","name":"","type":"string"}],"stateMutability":"nonpayable","type":"function"},{"inputs":[{"internalType":"bool","name":"wasHit","type":"bool"}],"name":"playerOneConfirmProof","outputs":[{"internalType":"string","name":"","type":"string"}],"stateMutability":"nonpayable","type":"function"},{"inputs":[{"internalType":"uint256","name":"x","type":"uint256"},{"internalType":"uint256","name":"y","type":"uint256"}],"name":"playerTwoAttack","outputs":[{"internalType":"string","name":"","type":"string"}],"stateMutability":"nonpayable","type":"function"},{"inputs":[{"internalType":"bool","name":"wasHit","type":"bool"}],"name":"playerTwoConfirmProof","outputs":[{"internalType":"string","name":"","type":"string"}],"stateMutability":"nonpayable","type":"function"},{"inputs":[{"internalType":"address","name":"_p1Address","type":"address"},{"internalType":"string","name":"_boardID","type":"string"}],"name":"setPlayerOne","outputs":[],"stateMutability":"nonpayable","type":"function"},{"inputs":[{"internalType":"address","name":"_p2Address","type":"address"},{"internalType":"string","name":"_boardID","type":"string"}],"name":"setPlayerTwo","outputs":[],"stateMutability":"nonpayable","type":"function"}],"evm":{"bytecode":{"linkReferences":{},"object":"60806040526001600660026101000a81548160ff0219169083151502179055506000600660036101000a81548160ff0219169083151502179055506000600660046101000a81548160ff0219169083151502179055506000600660056101000a81548160ff02191690831515021790555034801561007c57600080fd5b5061136e8061008c6000396000f3fe608060405234801561001057600080fd5b50600436106100885760003560e01c806385cd7a741161005b57806385cd7a741461012757806392508c5114610145578063a1e0c2f814610161578063c0917a5c1461019157610088565b80630bbbf4201461008d57806324d6e47e146100a95780635e86b7eb146100c75780637687f3df146100f7575b600080fd5b6100a760048036038101906100a29190610c72565b6101c1565b005b6100b1610241565b6040516100be9190610d4d565b60405180910390f35b6100e160048036038101906100dc9190610da5565b6102d3565b6040516100ee9190610d4d565b60405180910390f35b610111600480360381019061010c9190610da5565b6104fd565b60405161011e9190610d4d565b60405180910390f35b61012f610727565b60405161013c9190610d4d565b60405180910390f35b61015f600480360381019061015a9190610c72565b6107b9565b005b61017b60048036038101906101769190610e1d565b610838565b6040516101889190610d4d565b60405180910390f35b6101ab60048036038101906101a69190610e1d565b610979565b6040516101b89190610d4d565b60405180910390f35b81600160006101000a81548173ffffffffffffffffffffffffffffffffffffffff021916908373ffffffffffffffffffffffffffffffffffffffff16021790555080600390816102119190611056565b5080600590816102219190611056565b506000600660056101000a81548160ff0219169083151502179055505050565b60606005805461025090610e79565b80601f016020809104026020016040519081016040528092919081815260200182805461027c90610e79565b80156102c95780601f1061029e576101008083540402835291602001916102c9565b820191906000526020600020905b8154815290600101906020018083116102ac57829003601f168201915b5050505050905090565b6060600660039054906101000a900460ff1615610327576040518060400160405280600a81526020017f47616d65206f7665722e0000000000000000000000000000000000000000000081525090506104f7565b600660049054906101000a900460ff1615610379576040518060400160405280601a81526020017f4974206973206e6f7420706c6179657220312773207475726e2e00000000000081525090506104f7565b60008310806103885750600983115b806103935750600082105b8061039e5750600982115b156103c3576040518060600160405280602b815260200161123c602b913990506104f7565b60005b600780549050811015610469576000600782815481106103e9576103e8611128565b5b906000526020600020906002020160405180604001604052908160008201548152602001600182015481525050905084816000015114801561042e5750838160200151145b156104555760405180608001604052806047815260200161129160479139925050506104f7565b50808061046190611186565b9150506103c6565b5060076040518060400160405280858152602001848152509080600181540180825580915050600190039060005260206000209060020201600090919091909150600082015181600001556020820151816001015550506001600660046101000a81548160ff0219169083151502179055506040518060600160405280603781526020016112d86037913990505b92915050565b6060600660039054906101000a900460ff1615610551576040518060400160405280600a81526020017f47616d65206f7665722e000000000000000000000000000000000000000000008152509050610721565b600660059054906101000a900460ff16156105a3576040518060400160405280601a81526020017f4974206973206e6f7420706c6179657220322773207475726e2e0000000000008152509050610721565b60008310806105b25750600983115b806105bd5750600082105b806105c85750600982115b156105ed576040518060600160405280602b815260200161123c602b91399050610721565b60005b6008805490508110156106935760006008828154811061061357610612611128565b5b90600052602060002090600202016040518060400160405290816000820154815260200160018201548152505090508481600001511480156106585750838160200151145b1561067f576040518060800160405280604781526020016112916047913992505050610721565b50808061068b90611186565b9150506105f0565b5060086040518060400160405280858152602001848152509080600181540180825580915050600190039060005260206000209060020201600090919091909150600082015181600001556020820151816001015550506001600660056101000a81548160ff0219169083151502179055506040518060600160405280603781526020016112056037913990505b92915050565b60606004805461073690610e79565b80601f016020809104026020016040519081016040528092919081815260200182805461076290610e79565b80156107af5780601f10610784576101008083540402835291602001916107af565b820191906000526020600020905b81548152906001019060200180831161079257829003601f168201915b5050505050905090565b816000806101000a81548173ffffffffffffffffffffffffffffffffffffffff021916908373ffffffffffffffffffffffffffffffffffffffff16021790555080600290816108089190611056565b5080600490816108189190611056565b506001600660046101000a81548160ff0219169083151502179055505050565b6060600660039054906101000a900460ff161561088c576040518060400160405280600a81526020017f47616d65206f7665722e000000000000000000000000000000000000000000008152509050610974565b8115610922576006600081819054906101000a900460ff16809291906108b1906111db565b91906101000a81548160ff021916908360ff160217905550506005600660009054906101000a900460ff1660ff1603610921576040518060400160405280601981526020017f47616d65206f7665722e20506c6179657220322077696e732e000000000000008152509050610974565b5b6001600660026101000a81548160ff0219169083151502179055506000600660046101000a81548160ff0219169083151502179055506040518060600160405280602a815260200161130f602a913990505b919050565b6060600660039054906101000a900460ff16156109cd576040518060400160405280600a81526020017f47616d65206f7665722e000000000000000000000000000000000000000000008152509050610ab5565b8115610a63576006600181819054906101000a900460ff16809291906109f2906111db565b91906101000a81548160ff021916908360ff160217905550506005600660019054906101000a900460ff1660ff1603610a62576040518060400160405280601981526020017f47616d65206f7665722e20506c6179657220312077696e732e000000000000008152509050610ab5565b5b6000600660026101000a81548160ff0219169083151502179055506000600660056101000a81548160ff0219169083151502179055506040518060600160405280602a8152602001611267602a913990505b919050565b6000604051905090565b600080fd5b600080fd5b600073ffffffffffffffffffffffffffffffffffffffff82169050919050565b6000610af982610ace565b9050919050565b610b0981610aee565b8114610b1457600080fd5b50565b600081359050610b2681610b00565b92915050565b600080fd5b600080fd5b6000601f19601f8301169050919050565b7f4e487b7100000000000000000000000000000000000000000000000000000000600052604160045260246000fd5b610b7f82610b36565b810181811067ffffffffffffffff82111715610b9e57610b9d610b47565b5b80604052505050565b6000610bb1610aba565b9050610bbd8282610b76565b919050565b600067ffffffffffffffff821115610bdd57610bdc610b47565b5b610be682610b36565b9050602081019050919050565b82818337600083830152505050565b6000610c15610c1084610bc2565b610ba7565b905082815260208101848484011115610c3157610c30610b31565b5b610c3c848285610bf3565b509392505050565b600082601f830112610c5957610c58610b2c565b5b8135610c69848260208601610c02565b91505092915050565b60008060408385031215610c8957610c88610ac4565b5b6000610c9785828601610b17565b925050602083013567ffffffffffffffff811115610cb857610cb7610ac9565b5b610cc485828601610c44565b9150509250929050565b600081519050919050565b600082825260208201905092915050565b60005b83811015610d08578082015181840152602081019050610ced565b60008484015250505050565b6000610d1f82610cce565b610d298185610cd9565b9350610d39818560208601610cea565b610d4281610b36565b840191505092915050565b60006020820190508181036000830152610d678184610d14565b905092915050565b6000819050919050565b610d8281610d6f565b8114610d8d57600080fd5b50565b600081359050610d9f81610d79565b92915050565b60008060408385031215610dbc57610dbb610ac4565b5b6000610dca85828601610d90565b9250506020610ddb85828601610d90565b9150509250929050565b60008115159050919050565b610dfa81610de5565b8114610e0557600080fd5b50565b600081359050610e1781610df1565b92915050565b600060208284031215610e3357610e32610ac4565b5b6000610e4184828501610e08565b91505092915050565b7f4e487b7100000000000000000000000000000000000000000000000000000000600052602260045260246000fd5b60006002820490506001821680610e9157607f821691505b602082108103610ea457610ea3610e4a565b5b50919050565b60008190508160005260206000209050919050565b60006020601f8301049050919050565b600082821b905092915050565b600060088302610f0c7fffffffffffffffffffffffffffffffffffffffffffffffffffffffffffffffff82610ecf565b610f168683610ecf565b95508019841693508086168417925050509392505050565b6000819050919050565b6000610f53610f4e610f4984610d6f565b610f2e565b610d6f565b9050919050565b6000819050919050565b610f6d83610f38565b610f81610f7982610f5a565b848454610edc565b825550505050565b600090565b610f96610f89565b610fa1818484610f64565b505050565b5b81811015610fc557610fba600082610f8e565b600181019050610fa7565b5050565b601f82111561100a57610fdb81610eaa565b610fe484610ebf565b81016020851015610ff3578190505b611007610fff85610ebf565b830182610fa6565b50505b505050565b600082821c905092915050565b600061102d6000198460080261100f565b1980831691505092915050565b6000611046838361101c565b9150826002028217905092915050565b61105f82610cce565b67ffffffffffffffff81111561107857611077610b47565b5b6110828254610e79565b61108d828285610fc9565b600060209050601f8311600181146110c057600084156110ae578287015190505b6110b8858261103a565b865550611120565b601f1984166110ce86610eaa565b60005b828110156110f6578489015182556001820191506020850194506020810190506110d1565b86831015611113578489015161110f601f89168261101c565b8355505b6001600288020188555050505b505050505050565b7f4e487b7100000000000000000000000000000000000000000000000000000000600052603260045260246000fd5b7f4e487b7100000000000000000000000000000000000000000000000000000000600052601160045260246000fd5b600061119182610d6f565b91507fffffffffffffffffffffffffffffffffffffffffffffffffffffffffffffffff82036111c3576111c2611157565b5b600182019050919050565b600060ff82169050919050565b60006111e6826111ce565b915060ff82036111f9576111f8611157565b5b60018201905091905056fe4d6973736c65206c61756e636865642e2e2e20506c65617365207761697420666f7220706c617965722031277320726573706f6e73652e436f6f7264696e61746573206f7574206f662072616e67652e20506c656173652074727920616761696e2e56657269666965642e20497420697320706c6179657220322773207475726e20746f2061747461636b2e596f7520616c726561647920666972656420617420746865736520636f6f7264696e617465732e2054727920616e6f7468657220736574206f6620636f6f7264696e617465732e4d6973736c65206c61756e636865642e2e2e20506c65617365207761697420666f7220706c617965722032277320726573706f6e73652e56657269666965642e20497420697320706c6179657220312773207475726e20746f2061747461636b2ea26469706673582212209d23f63a78ed21293c9b78382b78ae3461471064fcca925ce39f07267426a2e664736f6c63430008120033","opcodes":"PUSH1 0x80 PUSH1 0x40 MSTORE PUSH1 0x1 PUSH1 0x6 PUSH1 0x2 PUSH2 0x100 EXP DUP2 SLOAD DUP2 PUSH1 0xFF MUL NOT AND SWAP1 DUP4 ISZERO ISZERO MUL OR SWAP1 SSTORE POP PUSH1 0x0 PUSH1 0x6 PUSH1 0x3 PUSH2 0x100 EXP DUP2 SLOAD DUP2 PUSH1 0xFF MUL NOT AND SWAP1 DUP4 ISZERO ISZERO MUL OR SWAP1 SSTORE POP PUSH1 0x0 PUSH1 0x6 PUSH1 0x4 PUSH2 0x100 EXP DUP2 SLOAD DUP2 PUSH1 0xFF MUL NOT AND SWAP1 DUP4 ISZERO ISZERO MUL OR SWAP1 SSTORE POP PUSH1 0x0 PUSH1 0x6 PUSH1 0x5 PUSH2 0x100 EXP DUP2 SLOAD DUP2 PUSH1 0xFF MUL NOT AND SWAP1 DUP4 ISZERO ISZERO MUL OR SWAP1 SSTORE POP CALLVALUE DUP1 ISZERO PUSH2 0x7C JUMPI PUSH1 0x0 DUP1 REVERT JUMPDEST POP PUSH2 0x136E DUP1 PUSH2 0x8C PUSH1 0x0 CODECOPY PUSH1 0x0 RETURN INVALID PUSH1 0x80 PUSH1 0x40 MSTORE CALLVALUE DUP1 ISZERO PUSH2 0x10 JUMPI PUSH1 0x0 DUP1 REVERT JUMPDEST POP PUSH1 0x4 CALLDATASIZE LT PUSH2 0x88 JUMPI PUSH1 0x0 CALLDATALOAD PUSH1 0xE0 SHR DUP1 PUSH4 0x85CD7A74 GT PUSH2 0x5B JUMPI DUP1 PUSH4 0x85CD7A74 EQ PUSH2 0x127 JUMPI DUP1 PUSH4 0x92508C51 EQ PUSH2 0x145 JUMPI DUP1 PUSH4 0xA1E0C2F8 EQ PUSH2 0x161 JUMPI DUP1 PUSH4 0xC0917A5C EQ PUSH2 0x191 JUMPI PUSH2 0x88 JUMP JUMPDEST DUP1 PUSH4 0xBBBF420 EQ PUSH2 0x8D JUMPI DUP1 PUSH4 0x24D6E47E EQ PUSH2 0xA9 JUMPI DUP1 PUSH4 0x5E86B7EB EQ PUSH2 0xC7 JUMPI DUP1 PUSH4 0x7687F3DF EQ PUSH2 0xF7 JUMPI JUMPDEST PUSH1 0x0 DUP1 REVERT JUMPDEST PUSH2 0xA7 PUSH1 0x4 DUP1 CALLDATASIZE SUB DUP2 ADD SWAP1 PUSH2 0xA2 SWAP2 SWAP1 PUSH2 0xC72 JUMP JUMPDEST PUSH2 0x1C1 JUMP JUMPDEST STOP JUMPDEST PUSH2 0xB1 PUSH2 0x241 JUMP JUMPDEST PUSH1 0x40 MLOAD PUSH2 0xBE SWAP2 SWAP1 PUSH2 0xD4D JUMP JUMPDEST PUSH1 0x40 MLOAD DUP1 SWAP2 SUB SWAP1 RETURN JUMPDEST PUSH2 0xE1 PUSH1 0x4 DUP1 CALLDATASIZE SUB DUP2 ADD SWAP1 PUSH2 0xDC SWAP2 SWAP1 PUSH2 0xDA5 JUMP JUMPDEST PUSH2 0x2D3 JUMP JUMPDEST PUSH1 0x40 MLOAD PUSH2 0xEE SWAP2 SWAP1 PUSH2 0xD4D JUMP JUMPDEST PUSH1 0x40 MLOAD DUP1 SWAP2 SUB SWAP1 RETURN JUMPDEST PUSH2 0x111 PUSH1 0x4 DUP1 CALLDATASIZE SUB DUP2 ADD SWAP1 PUSH2 0x10C SWAP2 SWAP1 PUSH2 0xDA5 JUMP JUMPDEST PUSH2 0x4FD JUMP JUMPDEST PUSH1 0x40 MLOAD PUSH2 0x11E SWAP2 SWAP1 PUSH2 0xD4D JUMP JUMPDEST PUSH1 0x40 MLOAD DUP1 SWAP2 SUB SWAP1 RETURN JUMPDEST PUSH2 0x12F PUSH2 0x727 JUMP JUMPDEST PUSH1 0x40 MLOAD PUSH2 0x13C SWAP2 SWAP1 PUSH2 0xD4D JUMP JUMPDEST PUSH1 0x40 MLOAD DUP1 SWAP2 SUB SWAP1 RETURN JUMPDEST PUSH2 0x15F PUSH1 0x4 DUP1 CALLDATASIZE SUB DUP2 ADD SWAP1 PUSH2 0x15A SWAP2 SWAP1 PUSH2 0xC72 JUMP JUMPDEST PUSH2 0x7B9 JUMP JUMPDEST STOP JUMPDEST PUSH2 0x17B PUSH1 0x4 DUP1 CALLDATASIZE SUB DUP2 ADD SWAP1 PUSH2 0x176 SWAP2 SWAP1 PUSH2 0xE1D JUMP JUMPDEST PUSH2 0x838 JUMP JUMPDEST PUSH1 0x40 MLOAD PUSH2 0x188 SWAP2 SWAP1 PUSH2 0xD4D JUMP JUMPDEST PUSH1 0x40 MLOAD DUP1 SWAP2 SUB SWAP1 RETURN JUMPDEST PUSH2 0x1AB PUSH1 0x4 DUP1 CALLDATASIZE SUB DUP2 ADD SWAP1 PUSH2 0x1A6 SWAP2 SWAP1 PUSH2 0xE1D JUMP JUMPDEST PUSH2 0x979 JUMP JUMPDEST PUSH1 0x40 MLOAD PUSH2 0x1B8 SWAP2 SWAP1 PUSH2 0xD4D JUMP JUMPDEST PUSH1 0x40 MLOAD DUP1 SWAP2 SUB SWAP1 RETURN JUMPDEST DUP2 PUSH1 0x1 PUSH1 0x0 PUSH2 0x100 EXP DUP2 SLOAD DUP2 PUSH20 0xFFFFFFFFFFFFFFFFFFFFFFFFFFFFFFFFFFFFFFFF MUL NOT AND SWAP1 DUP4 PUSH20 0xFFFFFFFFFFFFFFFFFFFFFFFFFFFFFFFFFFFFFFFF AND MUL OR SWAP1 SSTORE POP DUP1 PUSH1 0x3 SWAP1 DUP2 PUSH2 0x211 SWAP2 SWAP1 PUSH2 0x1056 JUMP JUMPDEST POP DUP1 PUSH1 0x5 SWAP1 DUP2 PUSH2 0x221 SWAP2 SWAP1 PUSH2 0x1056 JUMP JUMPDEST POP PUSH1 0x0 PUSH1 0x6 PUSH1 0x5 PUSH2 0x100 EXP DUP2 SLOAD DUP2 PUSH1 0xFF MUL NOT AND SWAP1 DUP4 ISZERO ISZERO MUL OR SWAP1 SSTORE POP POP POP JUMP JUMPDEST PUSH1 0x60 PUSH1 0x5 DUP1 SLOAD PUSH2 0x250 SWAP1 PUSH2 0xE79 JUMP JUMPDEST DUP1 PUSH1 0x1F ADD PUSH1 0x20 DUP1 SWAP2 DIV MUL PUSH1 0x20 ADD PUSH1 0x40 MLOAD SWAP1 DUP2 ADD PUSH1 0x40 MSTORE DUP1 SWAP3 SWAP2 SWAP1 DUP2 DUP2 MSTORE PUSH1 0x20 ADD DUP3 DUP1 SLOAD PUSH2 0x27C SWAP1 PUSH2 0xE79 JUMP JUMPDEST DUP1 ISZERO PUSH2 0x2C9 JUMPI DUP1 PUSH1 0x1F LT PUSH2 0x29E JUMPI PUSH2 0x100 DUP1 DUP4 SLOAD DIV MUL DUP4 MSTORE SWAP2 PUSH1 0x20 ADD SWAP2 PUSH2 0x2C9 JUMP JUMPDEST DUP3 ADD SWAP2 SWAP1 PUSH1 0x0 MSTORE PUSH1 0x20 PUSH1 0x0 KECCAK256 SWAP1 JUMPDEST DUP2 SLOAD DUP2 MSTORE SWAP1 PUSH1 0x1 ADD SWAP1 PUSH1 0x20 ADD DUP1 DUP4 GT PUSH2 0x2AC JUMPI DUP3 SWAP1 SUB PUSH1 0x1F AND DUP3 ADD SWAP2 JUMPDEST POP POP POP POP POP SWAP1 POP SWAP1 JUMP JUMPDEST PUSH1 0x60 PUSH1 0x6 PUSH1 0x3 SWAP1 SLOAD SWAP1 PUSH2 0x100 EXP SWAP1 DIV PUSH1 0xFF AND ISZERO PUSH2 0x327 JUMPI PUSH1 0x40 MLOAD DUP1 PUSH1 0x40 ADD PUSH1 0x40 MSTORE DUP1 PUSH1 0xA DUP2 MSTORE PUSH1 0x20 ADD PUSH32 0x47616D65206F7665722E00000000000000000000000000000000000000000000 DUP2 MSTORE POP SWAP1 POP PUSH2 0x4F7 JUMP JUMPDEST PUSH1 0x6 PUSH1 0x4 SWAP1 SLOAD SWAP1 PUSH2 0x100 EXP SWAP1 DIV PUSH1 0xFF AND ISZERO PUSH2 0x379 JUMPI PUSH1 0x40 MLOAD DUP1 PUSH1 0x40 ADD PUSH1 0x40 MSTORE DUP1 PUSH1 0x1A DUP2 MSTORE PUSH1 0x20 ADD PUSH32 0x4974206973206E6F7420706C6179657220312773207475726E2E000000000000 DUP2 MSTORE POP SWAP1 POP PUSH2 0x4F7 JUMP JUMPDEST PUSH1 0x0 DUP4 LT DUP1 PUSH2 0x388 JUMPI POP PUSH1 0x9 DUP4 GT JUMPDEST DUP1 PUSH2 0x393 JUMPI POP PUSH1 0x0 DUP3 LT JUMPDEST DUP1 PUSH2 0x39E JUMPI POP PUSH1 0x9 DUP3 GT JUMPDEST ISZERO PUSH2 0x3C3 JUMPI PUSH1 0x40 MLOAD DUP1 PUSH1 0x60 ADD PUSH1 0x40 MSTORE DUP1 PUSH1 0x2B DUP2 MSTORE PUSH1 0x20 ADD PUSH2 0x123C PUSH1 0x2B SWAP2 CODECOPY SWAP1 POP PUSH2 0x4F7 JUMP JUMPDEST PUSH1 0x0 JUMPDEST PUSH1 0x7 DUP1 SLOAD SWAP1 POP DUP2 LT ISZERO PUSH2 0x469 JUMPI PUSH1 0x0 PUSH1 0x7 DUP3 DUP2 SLOAD DUP2 LT PUSH2 0x3E9 JUMPI PUSH2 0x3E8 PUSH2 0x1128 JUMP JUMPDEST JUMPDEST SWAP1 PUSH1 0x0 MSTORE PUSH1 0x20 PUSH1 0x0 KECCAK256 SWAP1 PUSH1 0x2 MUL ADD PUSH1 0x40 MLOAD DUP1 PUSH1 0x40 ADD PUSH1 0x40 MSTORE SWAP1 DUP2 PUSH1 0x0 DUP3 ADD SLOAD DUP2 MSTORE PUSH1 0x20 ADD PUSH1 0x1 DUP3 ADD SLOAD DUP2 MSTORE POP POP SWAP1 POP DUP5 DUP2 PUSH1 0x0 ADD MLOAD EQ DUP1 ISZERO PUSH2 0x42E JUMPI POP DUP4 DUP2 PUSH1 0x20 ADD MLOAD EQ JUMPDEST ISZERO PUSH2 0x455 JUMPI PUSH1 0x40 MLOAD DUP1 PUSH1 0x80 ADD PUSH1 0x40 MSTORE DUP1 PUSH1 0x47 DUP2 MSTORE PUSH1 0x20 ADD PUSH2 0x1291 PUSH1 0x47 SWAP2 CODECOPY SWAP3 POP POP POP PUSH2 0x4F7 JUMP JUMPDEST POP DUP1 DUP1 PUSH2 0x461 SWAP1 PUSH2 0x1186 JUMP JUMPDEST SWAP2 POP POP PUSH2 0x3C6 JUMP JUMPDEST POP PUSH1 0x7 PUSH1 0x40 MLOAD DUP1 PUSH1 0x40 ADD PUSH1 0x40 MSTORE DUP1 DUP6 DUP2 MSTORE PUSH1 0x20 ADD DUP5 DUP2 MSTORE POP SWAP1 DUP1 PUSH1 0x1 DUP2 SLOAD ADD DUP1 DUP3 SSTORE DUP1 SWAP2 POP POP PUSH1 0x1 SWAP1 SUB SWAP1 PUSH1 0x0 MSTORE PUSH1 0x20 PUSH1 0x0 KECCAK256 SWAP1 PUSH1 0x2 MUL ADD PUSH1 0x0 SWAP1 SWAP2 SWAP1 SWAP2 SWAP1 SWAP2 POP PUSH1 0x0 DUP3 ADD MLOAD DUP2 PUSH1 0x0 ADD SSTORE PUSH1 0x20 DUP3 ADD MLOAD DUP2 PUSH1 0x1 ADD SSTORE POP POP PUSH1 0x1 PUSH1 0x6 PUSH1 0x4 PUSH2 0x100 EXP DUP2 SLOAD DUP2 PUSH1 0xFF MUL NOT AND SWAP1 DUP4 ISZERO ISZERO MUL OR SWAP1 SSTORE POP PUSH1 0x40 MLOAD DUP1 PUSH1 0x60 ADD PUSH1 0x40 MSTORE DUP1 PUSH1 0x37 DUP2 MSTORE PUSH1 0x20 ADD PUSH2 0x12D8 PUSH1 0x37 SWAP2 CODECOPY SWAP1 POP JUMPDEST SWAP3 SWAP2 POP POP JUMP JUMPDEST PUSH1 0x60 PUSH1 0x6 PUSH1 0x3 SWAP1 SLOAD SWAP1 PUSH2 0x100 EXP SWAP1 DIV PUSH1 0xFF AND ISZERO PUSH2 0x551 JUMPI PUSH1 0x40 MLOAD DUP1 PUSH1 0x40 ADD PUSH1 0x40 MSTORE DUP1 PUSH1 0xA DUP2 MSTORE PUSH1 0x20 ADD PUSH32 0x47616D65206F7665722E00000000000000000000000000000000000000000000 DUP2 MSTORE POP SWAP1 POP PUSH2 0x721 JUMP JUMPDEST PUSH1 0x6 PUSH1 0x5 SWAP1 SLOAD SWAP1 PUSH2 0x100 EXP SWAP1 DIV PUSH1 0xFF AND ISZERO PUSH2 0x5A3 JUMPI PUSH1 0x40 MLOAD DUP1 PUSH1 0x40 ADD PUSH1 0x40 MSTORE DUP1 PUSH1 0x1A DUP2 MSTORE PUSH1 0x20 ADD PUSH32 0x4974206973206E6F7420706C6179657220322773207475726E2E000000000000 DUP2 MSTORE POP SWAP1 POP PUSH2 0x721 JUMP JUMPDEST PUSH1 0x0 DUP4 LT DUP1 PUSH2 0x5B2 JUMPI POP PUSH1 0x9 DUP4 GT JUMPDEST DUP1 PUSH2 0x5BD JUMPI POP PUSH1 0x0 DUP3 LT JUMPDEST DUP1 PUSH2 0x5C8 JUMPI POP PUSH1 0x9 DUP3 GT JUMPDEST ISZERO PUSH2 0x5ED JUMPI PUSH1 0x40 MLOAD DUP1 PUSH1 0x60 ADD PUSH1 0x40 MSTORE DUP1 PUSH1 0x2B DUP2 MSTORE PUSH1 0x20 ADD PUSH2 0x123C PUSH1 0x2B SWAP2 CODECOPY SWAP1 POP PUSH2 0x721 JUMP JUMPDEST PUSH1 0x0 JUMPDEST PUSH1 0x8 DUP1 SLOAD SWAP1 POP DUP2 LT ISZERO PUSH2 0x693 JUMPI PUSH1 0x0 PUSH1 0x8 DUP3 DUP2 SLOAD DUP2 LT PUSH2 0x613 JUMPI PUSH2 0x612 PUSH2 0x1128 JUMP JUMPDEST JUMPDEST SWAP1 PUSH1 0x0 MSTORE PUSH1 0x20 PUSH1 0x0 KECCAK256 SWAP1 PUSH1 0x2 MUL ADD PUSH1 0x40 MLOAD DUP1 PUSH1 0x40 ADD PUSH1 0x40 MSTORE SWAP1 DUP2 PUSH1 0x0 DUP3 ADD SLOAD DUP2 MSTORE PUSH1 0x20 ADD PUSH1 0x1 DUP3 ADD SLOAD DUP2 MSTORE POP POP SWAP1 POP DUP5 DUP2 PUSH1 0x0 ADD MLOAD EQ DUP1 ISZERO PUSH2 0x658 JUMPI POP DUP4 DUP2 PUSH1 0x20 ADD MLOAD EQ JUMPDEST ISZERO PUSH2 0x67F JUMPI PUSH1 0x40 MLOAD DUP1 PUSH1 0x80 ADD PUSH1 0x40 MSTORE DUP1 PUSH1 0x47 DUP2 MSTORE PUSH1 0x20 ADD PUSH2 0x1291 PUSH1 0x47 SWAP2 CODECOPY SWAP3 POP POP POP PUSH2 0x721 JUMP JUMPDEST POP DUP1 DUP1 PUSH2 0x68B SWAP1 PUSH2 0x1186 JUMP JUMPDEST SWAP2 POP POP PUSH2 0x5F0 JUMP JUMPDEST POP PUSH1 0x8 PUSH1 0x40 MLOAD DUP1 PUSH1 0x40 ADD PUSH1 0x40 MSTORE DUP1 DUP6 DUP2 MSTORE PUSH1 0x20 ADD DUP5 DUP2 MSTORE POP SWAP1 DUP1 PUSH1 0x1 DUP2 SLOAD ADD DUP1 DUP3 SSTORE DUP1 SWAP2 POP POP PUSH1 0x1 SWAP1 SUB SWAP1 PUSH1 0x0 MSTORE PUSH1 0x20 PUSH1 0x0 KECCAK256 SWAP1 PUSH1 0x2 MUL ADD PUSH1 0x0 SWAP1 SWAP2 SWAP1 SWAP2 SWAP1 SWAP2 POP PUSH1 0x0 DUP3 ADD MLOAD DUP2 PUSH1 0x0 ADD SSTORE PUSH1 0x20 DUP3 ADD MLOAD DUP2 PUSH1 0x1 ADD SSTORE POP POP PUSH1 0x1 PUSH1 0x6 PUSH1 0x5 PUSH2 0x100 EXP DUP2 SLOAD DUP2 PUSH1 0xFF MUL NOT AND SWAP1 DUP4 ISZERO ISZERO MUL OR SWAP1 SSTORE POP PUSH1 0x40 MLOAD DUP1 PUSH1 0x60 ADD PUSH1 0x40 MSTORE DUP1 PUSH1 0x37 DUP2 MSTORE PUSH1 0x20 ADD PUSH2 0x1205 PUSH1 0x37 SWAP2 CODECOPY SWAP1 POP JUMPDEST SWAP3 SWAP2 POP POP JUMP JUMPDEST PUSH1 0x60 PUSH1 0x4 DUP1 SLOAD PUSH2 0x736 SWAP1 PUSH2 0xE79 JUMP JUMPDEST DUP1 PUSH1 0x1F ADD PUSH1 0x20 DUP1 SWAP2 DIV MUL PUSH1 0x20 ADD PUSH1 0x40 MLOAD SWAP1 DUP2 ADD PUSH1 0x40 MSTORE DUP1 SWAP3 SWAP2 SWAP1 DUP2 DUP2 MSTORE PUSH1 0x20 ADD DUP3 DUP1 SLOAD PUSH2 0x762 SWAP1 PUSH2 0xE79 JUMP JUMPDEST DUP1 ISZERO PUSH2 0x7AF JUMPI DUP1 PUSH1 0x1F LT PUSH2 0x784 JUMPI PUSH2 0x100 DUP1 DUP4 SLOAD DIV MUL DUP4 MSTORE SWAP2 PUSH1 0x20 ADD SWAP2 PUSH2 0x7AF JUMP JUMPDEST DUP3 ADD SWAP2 SWAP1 PUSH1 0x0 MSTORE PUSH1 0x20 PUSH1 0x0 KECCAK256 SWAP1 JUMPDEST DUP2 SLOAD DUP2 MSTORE SWAP1 PUSH1 0x1 ADD SWAP1 PUSH1 0x20 ADD DUP1 DUP4 GT PUSH2 0x792 JUMPI DUP3 SWAP1 SUB PUSH1 0x1F AND DUP3 ADD SWAP2 JUMPDEST POP POP POP POP POP SWAP1 POP SWAP1 JUMP JUMPDEST DUP2 PUSH1 0x0 DUP1 PUSH2 0x100 EXP DUP2 SLOAD DUP2 PUSH20 0xFFFFFFFFFFFFFFFFFFFFFFFFFFFFFFFFFFFFFFFF MUL NOT AND SWAP1 DUP4 PUSH20 0xFFFFFFFFFFFFFFFFFFFFFFFFFFFFFFFFFFFFFFFF AND MUL OR SWAP1 SSTORE POP DUP1 PUSH1 0x2 SWAP1 DUP2 PUSH2 0x808 SWAP2 SWAP1 PUSH2 0x1056 JUMP JUMPDEST POP DUP1 PUSH1 0x4 SWAP1 DUP2 PUSH2 0x818 SWAP2 SWAP1 PUSH2 0x1056 JUMP JUMPDEST POP PUSH1 0x1 PUSH1 0x6 PUSH1 0x4 PUSH2 0x100 EXP DUP2 SLOAD DUP2 PUSH1 0xFF MUL NOT AND SWAP1 DUP4 ISZERO ISZERO MUL OR SWAP1 SSTORE POP POP POP JUMP JUMPDEST PUSH1 0x60 PUSH1 0x6 PUSH1 0x3 SWAP1 SLOAD SWAP1 PUSH2 0x100 EXP SWAP1 DIV PUSH1 0xFF AND ISZERO PUSH2 0x88C JUMPI PUSH1 0x40 MLOAD DUP1 PUSH1 0x40 ADD PUSH1 0x40 MSTORE DUP1 PUSH1 0xA DUP2 MSTORE PUSH1 0x20 ADD PUSH32 0x47616D65206F7665722E00000000000000000000000000000000000000000000 DUP2 MSTORE POP SWAP1 POP PUSH2 0x974 JUMP JUMPDEST DUP2 ISZERO PUSH2 0x922 JUMPI PUSH1 0x6 PUSH1 0x0 DUP2 DUP2 SWAP1 SLOAD SWAP1 PUSH2 0x100 EXP SWAP1 DIV PUSH1 0xFF AND DUP1 SWAP3 SWAP2 SWAP1 PUSH2 0x8B1 SWAP1 PUSH2 0x11DB JUMP JUMPDEST SWAP2 SWAP1 PUSH2 0x100 EXP DUP2 SLOAD DUP2 PUSH1 0xFF MUL NOT AND SWAP1 DUP4 PUSH1 0xFF AND MUL OR SWAP1 SSTORE POP POP PUSH1 0x5 PUSH1 0x6 PUSH1 0x0 SWAP1 SLOAD SWAP1 PUSH2 0x100 EXP SWAP1 DIV PUSH1 0xFF AND PUSH1 0xFF AND SUB PUSH2 0x921 JUMPI PUSH1 0x40 MLOAD DUP1 PUSH1 0x40 ADD PUSH1 0x40 MSTORE DUP1 PUSH1 0x19 DUP2 MSTORE PUSH1 0x20 ADD PUSH32 0x47616D65206F7665722E20506C6179657220322077696E732E00000000000000 DUP2 MSTORE POP SWAP1 POP PUSH2 0x974 JUMP JUMPDEST JUMPDEST PUSH1 0x1 PUSH1 0x6 PUSH1 0x2 PUSH2 0x100 EXP DUP2 SLOAD DUP2 PUSH1 0xFF MUL NOT AND SWAP1 DUP4 ISZERO ISZERO MUL OR SWAP1 SSTORE POP PUSH1 0x0 PUSH1 0x6 PUSH1 0x4 PUSH2 0x100 EXP DUP2 SLOAD DUP2 PUSH1 0xFF MUL NOT AND SWAP1 DUP4 ISZERO ISZERO MUL OR SWAP1 SSTORE POP PUSH1 0x40 MLOAD DUP1 PUSH1 0x60 ADD PUSH1 0x40 MSTORE DUP1 PUSH1 0x2A DUP2 MSTORE PUSH1 0x20 ADD PUSH2 0x130F PUSH1 0x2A SWAP2 CODECOPY SWAP1 POP JUMPDEST SWAP2 SWAP1 POP JUMP JUMPDEST PUSH1 0x60 PUSH1 0x6 PUSH1 0x3 SWAP1 SLOAD SWAP1 PUSH2 0x100 EXP SWAP1 DIV PUSH1 0xFF AND ISZERO PUSH2 0x9CD JUMPI PUSH1 0x40 MLOAD DUP1 PUSH1 0x40 ADD PUSH1 0x40 MSTORE DUP1 PUSH1 0xA DUP2 MSTORE PUSH1 0x20 ADD PUSH32 0x47616D65206F7665722E00000000000000000000000000000000000000000000 DUP2 MSTORE POP SWAP1 POP PUSH2 0xAB5 JUMP JUMPDEST DUP2 ISZERO PUSH2 0xA63 JUMPI PUSH1 0x6 PUSH1 0x1 DUP2 DUP2 SWAP1 SLOAD SWAP1 PUSH2 0x100 EXP SWAP1 DIV PUSH1 0xFF AND DUP1 SWAP3 SWAP2 SWAP1 PUSH2 0x9F2 SWAP1 PUSH2 0x11DB JUMP JUMPDEST SWAP2 SWAP1 PUSH2 0x100 EXP DUP2 SLOAD DUP2 PUSH1 0xFF MUL NOT AND SWAP1 DUP4 PUSH1 0xFF AND MUL OR SWAP1 SSTORE POP POP PUSH1 0x5 PUSH1 0x6 PUSH1 0x1 SWAP1 SLOAD SWAP1 PUSH2 0x100 EXP SWAP1 DIV PUSH1 0xFF AND PUSH1 0xFF AND SUB PUSH2 0xA62 JUMPI PUSH1 0x40 MLOAD DUP1 PUSH1 0x40 ADD PUSH1 0x40 MSTORE DUP1 PUSH1 0x19 DUP2 MSTORE PUSH1 0x20 ADD PUSH32 0x47616D65206F7665722E20506C6179657220312077696E732E00000000000000 DUP2 MSTORE POP SWAP1 POP PUSH2 0xAB5 JUMP JUMPDEST JUMPDEST PUSH1 0x0 PUSH1 0x6 PUSH1 0x2 PUSH2 0x100 EXP DUP2 SLOAD DUP2 PUSH1 0xFF MUL NOT AND SWAP1 DUP4 ISZERO ISZERO MUL OR SWAP1 SSTORE POP PUSH1 0x0 PUSH1 0x6 PUSH1 0x5 PUSH2 0x100 EXP DUP2 SLOAD DUP2 PUSH1 0xFF MUL NOT AND SWAP1 DUP4 ISZERO ISZERO MUL OR SWAP1 SSTORE POP PUSH1 0x40 MLOAD DUP1 PUSH1 0x60 ADD PUSH1 0x40 MSTORE DUP1 PUSH1 0x2A DUP2 MSTORE PUSH1 0x20 ADD PUSH2 0x1267 PUSH1 0x2A SWAP2 CODECOPY SWAP1 POP JUMPDEST SWAP2 SWAP1 POP JUMP JUMPDEST PUSH1 0x0 PUSH1 0x40 MLOAD SWAP1 POP SWAP1 JUMP JUMPDEST PUSH1 0x0 DUP1 REVERT JUMPDEST PUSH1 0x0 DUP1 REVERT JUMPDEST PUSH1 0x0 PUSH20 0xFFFFFFFFFFFFFFFFFFFFFFFFFFFFFFFFFFFFFFFF DUP3 AND SWAP1 POP SWAP2 SWAP1 POP JUMP JUMPDEST PUSH1 0x0 PUSH2 0xAF9 DUP3 PUSH2 0xACE JUMP JUMPDEST SWAP1 POP SWAP2 SWAP1 POP JUMP JUMPDEST PUSH2 0xB09 DUP2 PUSH2 0xAEE JUMP JUMPDEST DUP2 EQ PUSH2 0xB14 JUMPI PUSH1 0x0 DUP1 REVERT JUMPDEST POP JUMP JUMPDEST PUSH1 0x0 DUP2 CALLDATALOAD SWAP1 POP PUSH2 0xB26 DUP2 PUSH2 0xB00 JUMP JUMPDEST SWAP3 SWAP2 POP POP JUMP JUMPDEST PUSH1 0x0 DUP1 REVERT JUMPDEST PUSH1 0x0 DUP1 REVERT JUMPDEST PUSH1 0x0 PUSH1 0x1F NOT PUSH1 0x1F DUP4 ADD AND SWAP1 POP SWAP2 SWAP1 POP JUMP JUMPDEST PUSH32 0x4E487B7100000000000000000000000000000000000000000000000000000000 PUSH1 0x0 MSTORE PUSH1 0x41 PUSH1 0x4 MSTORE PUSH1 0x24 PUSH1 0x0 REVERT JUMPDEST PUSH2 0xB7F DUP3 PUSH2 0xB36 JUMP JUMPDEST DUP2 ADD DUP2 DUP2 LT PUSH8 0xFFFFFFFFFFFFFFFF DUP3 GT OR ISZERO PUSH2 0xB9E JUMPI PUSH2 0xB9D PUSH2 0xB47 JUMP JUMPDEST JUMPDEST DUP1 PUSH1 0x40 MSTORE POP POP POP JUMP JUMPDEST PUSH1 0x0 PUSH2 0xBB1 PUSH2 0xABA JUMP JUMPDEST SWAP1 POP PUSH2 0xBBD DUP3 DUP3 PUSH2 0xB76 JUMP JUMPDEST SWAP2 SWAP1 POP JUMP JUMPDEST PUSH1 0x0 PUSH8 0xFFFFFFFFFFFFFFFF DUP3 GT ISZERO PUSH2 0xBDD JUMPI PUSH2 0xBDC PUSH2 0xB47 JUMP JUMPDEST JUMPDEST PUSH2 0xBE6 DUP3 PUSH2 0xB36 JUMP JUMPDEST SWAP1 POP PUSH1 0x20 DUP2 ADD SWAP1 POP SWAP2 SWAP1 POP JUMP JUMPDEST DUP3 DUP2 DUP4 CALLDATACOPY PUSH1 0x0 DUP4 DUP4 ADD MSTORE POP POP POP JUMP JUMPDEST PUSH1 0x0 PUSH2 0xC15 PUSH2 0xC10 DUP5 PUSH2 0xBC2 JUMP JUMPDEST PUSH2 0xBA7 JUMP JUMPDEST SWAP1 POP DUP3 DUP2 MSTORE PUSH1 0x20 DUP2 ADD DUP5 DUP5 DUP5 ADD GT ISZERO PUSH2 0xC31 JUMPI PUSH2 0xC30 PUSH2 0xB31 JUMP JUMPDEST JUMPDEST PUSH2 0xC3C DUP5 DUP3 DUP6 PUSH2 0xBF3 JUMP JUMPDEST POP SWAP4 SWAP3 POP POP POP JUMP JUMPDEST PUSH1 0x0 DUP3 PUSH1 0x1F DUP4 ADD SLT PUSH2 0xC59 JUMPI PUSH2 0xC58 PUSH2 0xB2C JUMP JUMPDEST JUMPDEST DUP2 CALLDATALOAD PUSH2 0xC69 DUP5 DUP3 PUSH1 0x20 DUP7 ADD PUSH2 0xC02 JUMP JUMPDEST SWAP2 POP POP SWAP3 SWAP2 POP POP JUMP JUMPDEST PUSH1 0x0 DUP1 PUSH1 0x40 DUP4 DUP6 SUB SLT ISZERO PUSH2 0xC89 JUMPI PUSH2 0xC88 PUSH2 0xAC4 JUMP JUMPDEST JUMPDEST PUSH1 0x0 PUSH2 0xC97 DUP6 DUP3 DUP7 ADD PUSH2 0xB17 JUMP JUMPDEST SWAP3 POP POP PUSH1 0x20 DUP4 ADD CALLDATALOAD PUSH8 0xFFFFFFFFFFFFFFFF DUP2 GT ISZERO PUSH2 0xCB8 JUMPI PUSH2 0xCB7 PUSH2 0xAC9 JUMP JUMPDEST JUMPDEST PUSH2 0xCC4 DUP6 DUP3 DUP7 ADD PUSH2 0xC44 JUMP JUMPDEST SWAP2 POP POP SWAP3 POP SWAP3 SWAP1 POP JUMP JUMPDEST PUSH1 0x0 DUP2 MLOAD SWAP1 POP SWAP2 SWAP1 POP JUMP JUMPDEST PUSH1 0x0 DUP3 DUP3 MSTORE PUSH1 0x20 DUP3 ADD SWAP1 POP SWAP3 SWAP2 POP POP JUMP JUMPDEST PUSH1 0x0 JUMPDEST DUP4 DUP2 LT ISZERO PUSH2 0xD08 JUMPI DUP1 DUP3 ADD MLOAD DUP2 DUP5 ADD MSTORE PUSH1 0x20 DUP2 ADD SWAP1 POP PUSH2 0xCED JUMP JUMPDEST PUSH1 0x0 DUP5 DUP5 ADD MSTORE POP POP POP POP JUMP JUMPDEST PUSH1 0x0 PUSH2 0xD1F DUP3 PUSH2 0xCCE JUMP JUMPDEST PUSH2 0xD29 DUP2 DUP6 PUSH2 0xCD9 JUMP JUMPDEST SWAP4 POP PUSH2 0xD39 DUP2 DUP6 PUSH1 0x20 DUP7 ADD PUSH2 0xCEA JUMP JUMPDEST PUSH2 0xD42 DUP2 PUSH2 0xB36 JUMP JUMPDEST DUP5 ADD SWAP2 POP POP SWAP3 SWAP2 POP POP JUMP JUMPDEST PUSH1 0x0 PUSH1 0x20 DUP3 ADD SWAP1 POP DUP2 DUP2 SUB PUSH1 0x0 DUP4 ADD MSTORE PUSH2 0xD67 DUP2 DUP5 PUSH2 0xD14 JUMP JUMPDEST SWAP1 POP SWAP3 SWAP2 POP POP JUMP JUMPDEST PUSH1 0x0 DUP2 SWAP1 POP SWAP2 SWAP1 POP JUMP JUMPDEST PUSH2 0xD82 DUP2 PUSH2 0xD6F JUMP JUMPDEST DUP2 EQ PUSH2 0xD8D JUMPI PUSH1 0x0 DUP1 REVERT JUMPDEST POP JUMP JUMPDEST PUSH1 0x0 DUP2 CALLDATALOAD SWAP1 POP PUSH2 0xD9F DUP2 PUSH2 0xD79 JUMP JUMPDEST SWAP3 SWAP2 POP POP JUMP JUMPDEST PUSH1 0x0 DUP1 PUSH1 0x40 DUP4 DUP6 SUB SLT ISZERO PUSH2 0xDBC JUMPI PUSH2 0xDBB PUSH2 0xAC4 JUMP JUMPDEST JUMPDEST PUSH1 0x0 PUSH2 0xDCA DUP6 DUP3 DUP7 ADD PUSH2 0xD90 JUMP JUMPDEST SWAP3 POP POP PUSH1 0x20 PUSH2 0xDDB DUP6 DUP3 DUP7 ADD PUSH2 0xD90 JUMP JUMPDEST SWAP2 POP POP SWAP3 POP SWAP3 SWAP1 POP JUMP JUMPDEST PUSH1 0x0 DUP2 ISZERO ISZERO SWAP1 POP SWAP2 SWAP1 POP JUMP JUMPDEST PUSH2 0xDFA DUP2 PUSH2 0xDE5 JUMP JUMPDEST DUP2 EQ PUSH2 0xE05 JUMPI PUSH1 0x0 DUP1 REVERT JUMPDEST POP JUMP JUMPDEST PUSH1 0x0 DUP2 CALLDATALOAD SWAP1 POP PUSH2 0xE17 DUP2 PUSH2 0xDF1 JUMP JUMPDEST SWAP3 SWAP2 POP POP JUMP JUMPDEST PUSH1 0x0 PUSH1 0x20 DUP3 DUP5 SUB SLT ISZERO PUSH2 0xE33 JUMPI PUSH2 0xE32 PUSH2 0xAC4 JUMP JUMPDEST JUMPDEST PUSH1 0x0 PUSH2 0xE41 DUP5 DUP3 DUP6 ADD PUSH2 0xE08 JUMP JUMPDEST SWAP2 POP POP SWAP3 SWAP2 POP POP JUMP JUMPDEST PUSH32 0x4E487B7100000000000000000000000000000000000000000000000000000000 PUSH1 0x0 MSTORE PUSH1 0x22 PUSH1 0x4 MSTORE PUSH1 0x24 PUSH1 0x0 REVERT JUMPDEST PUSH1 0x0 PUSH1 0x2 DUP3 DIV SWAP1 POP PUSH1 0x1 DUP3 AND DUP1 PUSH2 0xE91 JUMPI PUSH1 0x7F DUP3 AND SWAP2 POP JUMPDEST PUSH1 0x20 DUP3 LT DUP2 SUB PUSH2 0xEA4 JUMPI PUSH2 0xEA3 PUSH2 0xE4A JUMP JUMPDEST JUMPDEST POP SWAP2 SWAP1 POP JUMP JUMPDEST PUSH1 0x0 DUP2 SWAP1 POP DUP2 PUSH1 0x0 MSTORE PUSH1 0x20 PUSH1 0x0 KECCAK256 SWAP1 POP SWAP2 SWAP1 POP JUMP JUMPDEST PUSH1 0x0 PUSH1 0x20 PUSH1 0x1F DUP4 ADD DIV SWAP1 POP SWAP2 SWAP1 POP JUMP JUMPDEST PUSH1 0x0 DUP3 DUP3 SHL SWAP1 POP SWAP3 SWAP2 POP POP JUMP JUMPDEST PUSH1 0x0 PUSH1 0x8 DUP4 MUL PUSH2 0xF0C PUSH32 0xFFFFFFFFFFFFFFFFFFFFFFFFFFFFFFFFFFFFFFFFFFFFFFFFFFFFFFFFFFFFFFFF DUP3 PUSH2 0xECF JUMP JUMPDEST PUSH2 0xF16 DUP7 DUP4 PUSH2 0xECF JUMP JUMPDEST SWAP6 POP DUP1 NOT DUP5 AND SWAP4 POP DUP1 DUP7 AND DUP5 OR SWAP3 POP POP POP SWAP4 SWAP3 POP POP POP JUMP JUMPDEST PUSH1 0x0 DUP2 SWAP1 POP SWAP2 SWAP1 POP JUMP JUMPDEST PUSH1 0x0 PUSH2 0xF53 PUSH2 0xF4E PUSH2 0xF49 DUP5 PUSH2 0xD6F JUMP JUMPDEST PUSH2 0xF2E JUMP JUMPDEST PUSH2 0xD6F JUMP JUMPDEST SWAP1 POP SWAP2 SWAP1 POP JUMP JUMPDEST PUSH1 0x0 DUP2 SWAP1 POP SWAP2 SWAP1 POP JUMP JUMPDEST PUSH2 0xF6D DUP4 PUSH2 0xF38 JUMP JUMPDEST PUSH2 0xF81 PUSH2 0xF79 DUP3 PUSH2 0xF5A JUMP JUMPDEST DUP5 DUP5 SLOAD PUSH2 0xEDC JUMP JUMPDEST DUP3 SSTORE POP POP POP POP JUMP JUMPDEST PUSH1 0x0 SWAP1 JUMP JUMPDEST PUSH2 0xF96 PUSH2 0xF89 JUMP JUMPDEST PUSH2 0xFA1 DUP2 DUP5 DUP5 PUSH2 0xF64 JUMP JUMPDEST POP POP POP JUMP JUMPDEST JUMPDEST DUP2 DUP2 LT ISZERO PUSH2 0xFC5 JUMPI PUSH2 0xFBA PUSH1 0x0 DUP3 PUSH2 0xF8E JUMP JUMPDEST PUSH1 0x1 DUP2 ADD SWAP1 POP PUSH2 0xFA7 JUMP JUMPDEST POP POP JUMP JUMPDEST PUSH1 0x1F DUP3 GT ISZERO PUSH2 0x100A JUMPI PUSH2 0xFDB DUP2 PUSH2 0xEAA JUMP JUMPDEST PUSH2 0xFE4 DUP5 PUSH2 0xEBF JUMP JUMPDEST DUP2 ADD PUSH1 0x20 DUP6 LT ISZERO PUSH2 0xFF3 JUMPI DUP2 SWAP1 POP JUMPDEST PUSH2 0x1007 PUSH2 0xFFF DUP6 PUSH2 0xEBF JUMP JUMPDEST DUP4 ADD DUP3 PUSH2 0xFA6 JUMP JUMPDEST POP POP JUMPDEST POP POP POP JUMP JUMPDEST PUSH1 0x0 DUP3 DUP3 SHR SWAP1 POP SWAP3 SWAP2 POP POP JUMP JUMPDEST PUSH1 0x0 PUSH2 0x102D PUSH1 0x0 NOT DUP5 PUSH1 0x8 MUL PUSH2 0x100F JUMP JUMPDEST NOT DUP1 DUP4 AND SWAP2 POP POP SWAP3 SWAP2 POP POP JUMP JUMPDEST PUSH1 0x0 PUSH2 0x1046 DUP4 DUP4 PUSH2 0x101C JUMP JUMPDEST SWAP2 POP DUP3 PUSH1 0x2 MUL DUP3 OR SWAP1 POP SWAP3 SWAP2 POP POP JUMP JUMPDEST PUSH2 0x105F DUP3 PUSH2 0xCCE JUMP JUMPDEST PUSH8 0xFFFFFFFFFFFFFFFF DUP2 GT ISZERO PUSH2 0x1078 JUMPI PUSH2 0x1077 PUSH2 0xB47 JUMP JUMPDEST JUMPDEST PUSH2 0x1082 DUP3 SLOAD PUSH2 0xE79 JUMP JUMPDEST PUSH2 0x108D DUP3 DUP3 DUP6 PUSH2 0xFC9 JUMP JUMPDEST PUSH1 0x0 PUSH1 0x20 SWAP1 POP PUSH1 0x1F DUP4 GT PUSH1 0x1 DUP2 EQ PUSH2 0x10C0 JUMPI PUSH1 0x0 DUP5 ISZERO PUSH2 0x10AE JUMPI DUP3 DUP8 ADD MLOAD SWAP1 POP JUMPDEST PUSH2 0x10B8 DUP6 DUP3 PUSH2 0x103A JUMP JUMPDEST DUP7 SSTORE POP PUSH2 0x1120 JUMP JUMPDEST PUSH1 0x1F NOT DUP5 AND PUSH2 0x10CE DUP7 PUSH2 0xEAA JUMP JUMPDEST PUSH1 0x0 JUMPDEST DUP3 DUP2 LT ISZERO PUSH2 0x10F6 JUMPI DUP5 DUP10 ADD MLOAD DUP3 SSTORE PUSH1 0x1 DUP3 ADD SWAP2 POP PUSH1 0x20 DUP6 ADD SWAP5 POP PUSH1 0x20 DUP2 ADD SWAP1 POP PUSH2 0x10D1 JUMP JUMPDEST DUP7 DUP4 LT ISZERO PUSH2 0x1113 JUMPI DUP5 DUP10 ADD MLOAD PUSH2 0x110F PUSH1 0x1F DUP10 AND DUP3 PUSH2 0x101C JUMP JUMPDEST DUP4 SSTORE POP JUMPDEST PUSH1 0x1 PUSH1 0x2 DUP9 MUL ADD DUP9 SSTORE POP POP POP JUMPDEST POP POP POP POP POP POP JUMP JUMPDEST PUSH32 0x4E487B7100000000000000000000000000000000000000000000000000000000 PUSH1 0x0 MSTORE PUSH1 0x32 PUSH1 0x4 MSTORE PUSH1 0x24 PUSH1 0x0 REVERT JUMPDEST PUSH32 0x4E487B7100000000000000000000000000000000000000000000000000000000 PUSH1 0x0 MSTORE PUSH1 0x11 PUSH1 0x4 MSTORE PUSH1 0x24 PUSH1 0x0 REVERT JUMPDEST PUSH1 0x0 PUSH2 0x1191 DUP3 PUSH2 0xD6F JUMP JUMPDEST SWAP2 POP PUSH32 0xFFFFFFFFFFFFFFFFFFFFFFFFFFFFFFFFFFFFFFFFFFFFFFFFFFFFFFFFFFFFFFFF DUP3 SUB PUSH2 0x11C3 JUMPI PUSH2 0x11C2 PUSH2 0x1157 JUMP JUMPDEST JUMPDEST PUSH1 0x1 DUP3 ADD SWAP1 POP SWAP2 SWAP1 POP JUMP JUMPDEST PUSH1 0x0 PUSH1 0xFF DUP3 AND SWAP1 POP SWAP2 SWAP1 POP JUMP JUMPDEST PUSH1 0x0 PUSH2 0x11E6 DUP3 PUSH2 0x11CE JUMP JUMPDEST SWAP2 POP PUSH1 0xFF DUP3 SUB PUSH2 0x11F9 JUMPI PUSH2 0x11F8 PUSH2 0x1157 JUMP JUMPDEST JUMPDEST PUSH1 0x1 DUP3 ADD SWAP1 POP SWAP2 SWAP1 POP JUMP INVALID 0x4D PUSH10 0x73736C65206C61756E63 PUSH9 0x65642E2E2E20506C65 PUSH2 0x7365 KECCAK256 PUSH24 0x61697420666F7220706C617965722031277320726573706F PUSH15 0x73652E436F6F7264696E6174657320 PUSH16 0x7574206F662072616E67652E20506C65 PUSH2 0x7365 KECCAK256 PUSH21 0x727920616761696E2E56657269666965642E204974 KECCAK256 PUSH10 0x7320706C617965722032 0x27 PUSH20 0x207475726E20746F2061747461636B2E596F7520 PUSH2 0x6C72 PUSH6 0x616479206669 PUSH19 0x656420617420746865736520636F6F7264696E PUSH2 0x7465 PUSH20 0x2E2054727920616E6F7468657220736574206F66 KECCAK256 PUSH4 0x6F6F7264 PUSH10 0x6E617465732E4D697373 PUSH13 0x65206C61756E636865642E2E2E KECCAK256 POP PUSH13 0x65617365207761697420666F72 KECCAK256 PUSH17 0x6C617965722032277320726573706F6E73 PUSH6 0x2E5665726966 PUSH10 0x65642E20497420697320 PUSH17 0x6C6179657220312773207475726E20746F KECCAK256 PUSH2 0x7474 PUSH2 0x636B 0x2E LOG2 PUSH5 0x6970667358 0x22 SLT KECCAK256 SWAP14 0x23 0xF6 GASPRICE PUSH25 0xED21293C9B78382B78AE3461471064FCCA925CE39F07267426 LOG2 0xE6 PUSH5 0x736F6C6343 STOP ADDMOD SLT STOP CALLER "},"methodIdentifiers":{"getP1LastProof()":"85cd7a74","getP2LastProof()":"24d6e47e","playerOneAttack(uint256,uint256)":"5e86b7eb","playerOneConfirmProof(bool)":"a1e0c2f8","playerTwoAttack(uint256,uint256)":"7687f3df","playerTwoConfirmProof(bool)":"c0917a5c","setPlayerOne(address,string)":"92508c51","setPlayerTwo(address,string)":"0bbbf420"}}}}}