{
  "_format": "hh-sol-artifact-1",
  "contractName": "Battlesnark",
  "sourceName": "contracts/Battlesnark.sol",
  "abi": [
    {
      "inputs": [],
      "name": "getP1LastProof",
      "outputs": [
        {
          "internalType": "string",
          "name": "",
          "type": "string"
        }
      ],
      "stateMutability": "view",
      "type": "function"
    },
    {
      "inputs": [],
      "name": "getP2LastProof",
      "outputs": [
        {
          "internalType": "string",
          "name": "",
          "type": "string"
        }
      ],
      "stateMutability": "view",
      "type": "function"
    },
    {
      "inputs": [
        {
          "internalType": "uint256",
          "name": "x",
          "type": "uint256"
        },
        {
          "internalType": "uint256",
          "name": "y",
          "type": "uint256"
        }
      ],
      "name": "playerOneAttack",
      "outputs": [
        {
          "internalType": "string",
          "name": "",
          "type": "string"
        }
      ],
      "stateMutability": "nonpayable",
      "type": "function"
    },
    {
      "inputs": [
        {
          "internalType": "bool",
          "name": "wasHit",
          "type": "bool"
        }
      ],
      "name": "playerOneConfirmProof",
      "outputs": [
        {
          "internalType": "string",
          "name": "",
          "type": "string"
        }
      ],
      "stateMutability": "nonpayable",
      "type": "function"
    },
    {
      "inputs": [
        {
          "internalType": "uint256",
          "name": "x",
          "type": "uint256"
        },
        {
          "internalType": "uint256",
          "name": "y",
          "type": "uint256"
        }
      ],
      "name": "playerTwoAttack",
      "outputs": [
        {
          "internalType": "string",
          "name": "",
          "type": "string"
        }
      ],
      "stateMutability": "nonpayable",
      "type": "function"
    },
    {
      "inputs": [
        {
          "internalType": "bool",
          "name": "wasHit",
          "type": "bool"
        }
      ],
      "name": "playerTwoConfirmProof",
      "outputs": [
        {
          "internalType": "string",
          "name": "",
          "type": "string"
        }
      ],
      "stateMutability": "nonpayable",
      "type": "function"
    },
    {
      "inputs": [
        {
          "internalType": "address",
          "name": "_p1Address",
          "type": "address"
        },
        {
          "internalType": "string",
          "name": "_boardID",
          "type": "string"
        }
      ],
      "name": "setPlayerOne",
      "outputs": [],
      "stateMutability": "nonpayable",
      "type": "function"
    },
    {
      "inputs": [
        {
          "internalType": "address",
          "name": "_p2Address",
          "type": "address"
        },
        {
          "internalType": "string",
          "name": "_boardID",
          "type": "string"
        }
      ],
      "name": "setPlayerTwo",
      "outputs": [],
      "stateMutability": "nonpayable",
      "type": "function"
    }
  ],
  "bytecode": "0x60806040526001600660026101000a81548160ff0219169083151502179055506000600660036101000a81548160ff0219169083151502179055506000600660046101000a81548160ff0219169083151502179055506000600660056101000a81548160ff02191690831515021790555034801561007c57600080fd5b5061136e8061008c6000396000f3fe608060405234801561001057600080fd5b50600436106100885760003560e01c806385cd7a741161005b57806385cd7a741461012757806392508c5114610145578063a1e0c2f814610161578063c0917a5c1461019157610088565b80630bbbf4201461008d57806324d6e47e146100a95780635e86b7eb146100c75780637687f3df146100f7575b600080fd5b6100a760048036038101906100a29190610c72565b6101c1565b005b6100b1610241565b6040516100be9190610d4d565b60405180910390f35b6100e160048036038101906100dc9190610da5565b6102d3565b6040516100ee9190610d4d565b60405180910390f35b610111600480360381019061010c9190610da5565b6104fd565b60405161011e9190610d4d565b60405180910390f35b61012f610727565b60405161013c9190610d4d565b60405180910390f35b61015f600480360381019061015a9190610c72565b6107b9565b005b61017b60048036038101906101769190610e1d565b610838565b6040516101889190610d4d565b60405180910390f35b6101ab60048036038101906101a69190610e1d565b610979565b6040516101b89190610d4d565b60405180910390f35b81600160006101000a81548173ffffffffffffffffffffffffffffffffffffffff021916908373ffffffffffffffffffffffffffffffffffffffff16021790555080600390816102119190611056565b5080600590816102219190611056565b506000600660056101000a81548160ff0219169083151502179055505050565b60606005805461025090610e79565b80601f016020809104026020016040519081016040528092919081815260200182805461027c90610e79565b80156102c95780601f1061029e576101008083540402835291602001916102c9565b820191906000526020600020905b8154815290600101906020018083116102ac57829003601f168201915b5050505050905090565b6060600660039054906101000a900460ff1615610327576040518060400160405280600a81526020017f47616d65206f7665722e0000000000000000000000000000000000000000000081525090506104f7565b600660049054906101000a900460ff1615610379576040518060400160405280601a81526020017f4974206973206e6f7420706c6179657220312773207475726e2e00000000000081525090506104f7565b60008310806103885750600983115b806103935750600082105b8061039e5750600982115b156103c3576040518060600160405280602b815260200161123c602b913990506104f7565b60005b600780549050811015610469576000600782815481106103e9576103e8611128565b5b906000526020600020906002020160405180604001604052908160008201548152602001600182015481525050905084816000015114801561042e5750838160200151145b156104555760405180608001604052806047815260200161129160479139925050506104f7565b50808061046190611186565b9150506103c6565b5060076040518060400160405280858152602001848152509080600181540180825580915050600190039060005260206000209060020201600090919091909150600082015181600001556020820151816001015550506001600660046101000a81548160ff0219169083151502179055506040518060600160405280603781526020016112d86037913990505b92915050565b6060600660039054906101000a900460ff1615610551576040518060400160405280600a81526020017f47616d65206f7665722e000000000000000000000000000000000000000000008152509050610721565b600660059054906101000a900460ff16156105a3576040518060400160405280601a81526020017f4974206973206e6f7420706c6179657220322773207475726e2e0000000000008152509050610721565b60008310806105b25750600983115b806105bd5750600082105b806105c85750600982115b156105ed576040518060600160405280602b815260200161123c602b91399050610721565b60005b6008805490508110156106935760006008828154811061061357610612611128565b5b90600052602060002090600202016040518060400160405290816000820154815260200160018201548152505090508481600001511480156106585750838160200151145b1561067f576040518060800160405280604781526020016112916047913992505050610721565b50808061068b90611186565b9150506105f0565b5060086040518060400160405280858152602001848152509080600181540180825580915050600190039060005260206000209060020201600090919091909150600082015181600001556020820151816001015550506001600660056101000a81548160ff0219169083151502179055506040518060600160405280603781526020016112056037913990505b92915050565b60606004805461073690610e79565b80601f016020809104026020016040519081016040528092919081815260200182805461076290610e79565b80156107af5780601f10610784576101008083540402835291602001916107af565b820191906000526020600020905b81548152906001019060200180831161079257829003601f168201915b5050505050905090565b816000806101000a81548173ffffffffffffffffffffffffffffffffffffffff021916908373ffffffffffffffffffffffffffffffffffffffff16021790555080600290816108089190611056565b5080600490816108189190611056565b506001600660046101000a81548160ff0219169083151502179055505050565b6060600660039054906101000a900460ff161561088c576040518060400160405280600a81526020017f47616d65206f7665722e000000000000000000000000000000000000000000008152509050610974565b8115610922576006600081819054906101000a900460ff16809291906108b1906111db565b91906101000a81548160ff021916908360ff160217905550506005600660009054906101000a900460ff1660ff1603610921576040518060400160405280601981526020017f47616d65206f7665722e20506c6179657220322077696e732e000000000000008152509050610974565b5b6001600660026101000a81548160ff0219169083151502179055506000600660046101000a81548160ff0219169083151502179055506040518060600160405280602a815260200161130f602a913990505b919050565b6060600660039054906101000a900460ff16156109cd576040518060400160405280600a81526020017f47616d65206f7665722e000000000000000000000000000000000000000000008152509050610ab5565b8115610a63576006600181819054906101000a900460ff16809291906109f2906111db565b91906101000a81548160ff021916908360ff160217905550506005600660019054906101000a900460ff1660ff1603610a62576040518060400160405280601981526020017f47616d65206f7665722e20506c6179657220312077696e732e000000000000008152509050610ab5565b5b6000600660026101000a81548160ff0219169083151502179055506000600660056101000a81548160ff0219169083151502179055506040518060600160405280602a8152602001611267602a913990505b919050565b6000604051905090565b600080fd5b600080fd5b600073ffffffffffffffffffffffffffffffffffffffff82169050919050565b6000610af982610ace565b9050919050565b610b0981610aee565b8114610b1457600080fd5b50565b600081359050610b2681610b00565b92915050565b600080fd5b600080fd5b6000601f19601f8301169050919050565b7f4e487b7100000000000000000000000000000000000000000000000000000000600052604160045260246000fd5b610b7f82610b36565b810181811067ffffffffffffffff82111715610b9e57610b9d610b47565b5b80604052505050565b6000610bb1610aba565b9050610bbd8282610b76565b919050565b600067ffffffffffffffff821115610bdd57610bdc610b47565b5b610be682610b36565b9050602081019050919050565b82818337600083830152505050565b6000610c15610c1084610bc2565b610ba7565b905082815260208101848484011115610c3157610c30610b31565b5b610c3c848285610bf3565b509392505050565b600082601f830112610c5957610c58610b2c565b5b8135610c69848260208601610c02565b91505092915050565b60008060408385031215610c8957610c88610ac4565b5b6000610c9785828601610b17565b925050602083013567ffffffffffffffff811115610cb857610cb7610ac9565b5b610cc485828601610c44565b9150509250929050565b600081519050919050565b600082825260208201905092915050565b60005b83811015610d08578082015181840152602081019050610ced565b60008484015250505050565b6000610d1f82610cce565b610d298185610cd9565b9350610d39818560208601610cea565b610d4281610b36565b840191505092915050565b60006020820190508181036000830152610d678184610d14565b905092915050565b6000819050919050565b610d8281610d6f565b8114610d8d57600080fd5b50565b600081359050610d9f81610d79565b92915050565b60008060408385031215610dbc57610dbb610ac4565b5b6000610dca85828601610d90565b9250506020610ddb85828601610d90565b9150509250929050565b60008115159050919050565b610dfa81610de5565b8114610e0557600080fd5b50565b600081359050610e1781610df1565b92915050565b600060208284031215610e3357610e32610ac4565b5b6000610e4184828501610e08565b91505092915050565b7f4e487b7100000000000000000000000000000000000000000000000000000000600052602260045260246000fd5b60006002820490506001821680610e9157607f821691505b602082108103610ea457610ea3610e4a565b5b50919050565b60008190508160005260206000209050919050565b60006020601f8301049050919050565b600082821b905092915050565b600060088302610f0c7fffffffffffffffffffffffffffffffffffffffffffffffffffffffffffffffff82610ecf565b610f168683610ecf565b95508019841693508086168417925050509392505050565b6000819050919050565b6000610f53610f4e610f4984610d6f565b610f2e565b610d6f565b9050919050565b6000819050919050565b610f6d83610f38565b610f81610f7982610f5a565b848454610edc565b825550505050565b600090565b610f96610f89565b610fa1818484610f64565b505050565b5b81811015610fc557610fba600082610f8e565b600181019050610fa7565b5050565b601f82111561100a57610fdb81610eaa565b610fe484610ebf565b81016020851015610ff3578190505b611007610fff85610ebf565b830182610fa6565b50505b505050565b600082821c905092915050565b600061102d6000198460080261100f565b1980831691505092915050565b6000611046838361101c565b9150826002028217905092915050565b61105f82610cce565b67ffffffffffffffff81111561107857611077610b47565b5b6110828254610e79565b61108d828285610fc9565b600060209050601f8311600181146110c057600084156110ae578287015190505b6110b8858261103a565b865550611120565b601f1984166110ce86610eaa565b60005b828110156110f6578489015182556001820191506020850194506020810190506110d1565b86831015611113578489015161110f601f89168261101c565b8355505b6001600288020188555050505b505050505050565b7f4e487b7100000000000000000000000000000000000000000000000000000000600052603260045260246000fd5b7f4e487b7100000000000000000000000000000000000000000000000000000000600052601160045260246000fd5b600061119182610d6f565b91507fffffffffffffffffffffffffffffffffffffffffffffffffffffffffffffffff82036111c3576111c2611157565b5b600182019050919050565b600060ff82169050919050565b60006111e6826111ce565b915060ff82036111f9576111f8611157565b5b60018201905091905056fe4d6973736c65206c61756e636865642e2e2e20506c65617365207761697420666f7220706c617965722031277320726573706f6e73652e436f6f7264696e61746573206f7574206f662072616e67652e20506c656173652074727920616761696e2e56657269666965642e20497420697320706c6179657220322773207475726e20746f2061747461636b2e596f7520616c726561647920666972656420617420746865736520636f6f7264696e617465732e2054727920616e6f7468657220736574206f6620636f6f7264696e617465732e4d6973736c65206c61756e636865642e2e2e20506c65617365207761697420666f7220706c617965722032277320726573706f6e73652e56657269666965642e20497420697320706c6179657220312773207475726e20746f2061747461636b2ea26469706673582212209d23f63a78ed21293c9b78382b78ae3461471064fcca925ce39f07267426a2e664736f6c63430008120033",
  "linkReferences": {},
  "deployedLinkReferences": {}
}